S016000044697374616E636553656E736F722E7372656369
S11300000C943E000C9448000C9448000C94480056
S11300100C9448000C9448000C9448000C9448003C
S11300200C9448000C9448000C9448000C9448002C
S11300300C9448000C9448000C9448000C9448001C
S11300400C9448000C9448000C9448000C9448000C
S11300500C9448000C9448000C9448000C944800FC
S11300600C9448000C9448000C9448000C944800EC
S11300700C9448000C9448000C94480011241FBEB2
S1130080CFEFD0E1DEBFCDBF0E9460000C946600CC
S11300900C9400001092C5008CE08093C400109270
S11300A0C00088E18093C10086E08093C200089577
S11300B0E0ECF0E0908195FFFDCF8093C6000895B9
S11300C00E944A0081E40E945800FCCFF894FFCFBC
S9030000FC
