S01400005465737448617264776172652E7372656342
S11300000C943E000C945B000C945B000C945B001D
S11300100C945B000C945B000C945B000C945B00F0
S11300200C945B000C945B000C945B000C945B00E0
S11300300C945B000C945D000C945B000C945B00CE
S11300400C945B000C945B000C945B000C945B00C0
S11300500C945B000C945B000C945B000C945B00B0
S11300600C945B000C945B000C945B000C945B00A0
S11300700C945B000C945B000C945B0011241FBE79
S1130080CFEFD0E1DEBFCDBF15E0A0E0B1E0E4ECFE
S1130090F1E002C005900D92A030B107D9F725E038
S11300A0A0E0B5E001C01D92A130B207E1F70E94C3
S11300B0B4000C94E0000C9400001F920F920FB651
S11300C00F9211242F938F939F93EF93FF9310928A
S11300D07C00EAE7F0E0808180648083808186FD93
S11300E0FDCF209179008091780090917900922B36
S11300F0969587959695879580930005FF91EF9146
S11301009F918F912F910F900FBE0F901F90189574
S113011080E480937C0087E880937A000895F894C3
S113012082E080936F0081E08093810084E690E018
S11301309093890080938800789408951092CD005C
S11301408AE08093CC001092C80088E18093C900B3
S113015086E08093CA000895E8ECF0E0908195FF72
S1130160FDCF8093CE0008950E949E000E948800D7
S11301700E948F00C0E0D0E000E010E002C0C02F79
S1130180D12F80910005882379F0802F912FE7E803
S1130190F3E13197F1F700C00000019620910005CA
S11301A030E08217930798F3FE01E050FF4F8081FF
S11301B00E94AC00C115F4E0DF0709F32196E1CFFA
S10701C0F894FFCFDD
S11301C4808081828383848586878788898A8A8BD1
S11301D48C8D8E8E8F9091919293949595969798F9
S11301E498999A9B9B9C9D9E9E9FA0A1A2A2A3A426
S11301F4A5A5A6A7A7A8A9AAAAABACADADAEAFB056
S1130204B0B1B2B2B3B4B5B5B6B7B7B8B9BABABB8C
S1130214BCBCBDBEBEBFC0C0C1C2C2C3C4C4C5C6CB
S1130224C6C7C8C8C9CACACBCBCCCDCDCECFCFD014
S1130234D0D1D2D2D3D3D4D5D5D6D6D7D7D8D9D969
S1130244DADADBDBDCDCDDDDDEDEDFE0E0E1E1E2CB
S1130254E2E3E3E4E4E4E5E5E6E6E7E7E8E8E9E93C
S1130264EAEAEAEBEBECECECEDEDEEEEEEEFEFF0BC
S1130274F0F0F1F1F1F2F2F2F3F3F3F4F4F4F5F54E
S1130284F5F6F6F6F6F7F7F7F8F8F8F8F9F9F9F9F0
S1130294FAFAFAFAFAFBFBFBFBFBFCFCFCFCFCFCA5
S11302A4FDFDFDFDFDFDFDFEFEFEFEFEFEFEFEFE6D
S11302B4FEFEFFFFFFFFFFFFFFFFFFFFFFFFFFFF48
S11302C4FFFFFFFFFFFFFFFFFFFFFFFFFFFFFFFE37
S11302D4FEFEFEFEFEFEFEFEFEFEFDFDFDFDFDFD3C
S11302E4FDFCFCFCFCFCFCFBFBFBFBFBFAFAFAFA52
S11302F4FAF9F9F9F9F8F8F8F8F7F7F7F6F6F6F67B
S1130304F5F5F5F4F4F4F3F3F3F2F2F2F1F1F1F0B8
S1130314F0F0EFEFEEEEEEEDEDECECECEBEBEAEA05
S1130324EAE9E9E8E8E7E7E6E6E5E5E4E4E4E3E363
S1130334E2E2E1E1E0E0DFDEDEDDDDDCDCDBDBDAD2
S1130344DAD9D9D8D7D7D6D6D5D5D4D3D3D2D2D14E
S1130354D0D0CFCFCECDCDCCCBCBCACAC9C8C8C7D9
S1130364C6C6C5C4C4C3C2C2C1C0C0BFBEBEBDBC70
S1130374BCBBBABAB9B8B7B7B6B5B5B4B3B2B2B10F
S1130384B0B0AFAEADADACABAAAAA9A8A7A7A6A5B9
S1130394A5A4A3A2A2A1A09F9E9E9D9C9B9B9A9967
S11303A49898979695959493929191908F8E8E8D1B
S11303B48C8B8A8A898887878685848383828180D3
S11303C4807F7E7D7C7C7B7A79787877767575748A
S11303D473727171706F6E6E6D6C6B6A6A69686743
S11303E4676665646463626161605F5E5D5D5C5BF6
S11303F45A5A595858575655555453525251504FA6
S11304044F4E4D4D4C4B4A4A49484847464545444E
S11304144343424141403F3F3E3D3D3C3B3B3A39EF
S11304243938373736353534343332323130302F86
S11304342F2E2D2D2C2C2B2A2A2929282827262611
S113044425252424232322222121201F1F1E1E1D8F
S11304541D1C1C1B1B1B1A1A1919181817171616FE
S11304641515151414131313121211111110100F5E
S11304740F0F0E0E0E0D0D0D0C0C0C0B0B0B0A0AAC
S11304840A090909090808080707070706060606EA
S11304940505050505040404040403030303030315
S11304A4020202020202020101010101010101012D
S11304B40101000000000000000000000000000032
S11304C40000000000000000000000000000000123
S11304D401010101010101010101020202020202FE
S11304E402030303030303040404040405050505C8
S11304F4050606060607070707080808090909097F
S11305040A0A0A0B0B0B0C0C0C0D0D0D0E0E0E0F20
S11305140F0F1010111111121213131314141515B3
S11305241516161717181819191A1A1B1B1B1C1C35
S11305341D1D1E1E1F1F20212122222323242425A6
S113054425262627282829292A2A2B2C2C2D2D2E0A
S11305542F2F30303132323334343535363737385F
S113056439393A3B3B3C3D3D3E3F3F4041414243A8
S11305744344454546474848494A4A4B4C4D4D4EE9
S11305844F4F505152525354555556575858595A1F
S11305945A5B5C5D5D5E5F60616162636464656651
S11305A4676768696A6A6B6C6D6E6E6F707171727D
S11305B47374757576777878797A7B7C7C7D7E7FA5
S9030000FC
